:020000040800F2
:10000000D007002089010008BF21000897160008CA
:10001000BD210008F30200085F2300080000000073
:10002000000000000000000000000000F9220008AD
:10003000F502000800000000C1210008FB220008B2
:10004000A3010008A3010008A3010008A301000800
:10005000A3010008A3010008A3010008F70200089B
:10006000A3010008A3010008A3010008A3010008E0
:10007000A3010008A3010008A3010008A3010008D0
:10008000A3010008A3010008A3010008A3010008C0
:10009000A3010008A3010008A3010008A3010008B0
:1000A000A3010008A3010008A3010008A3010008A0
:1000B000A3010008A3010008A3010008A301000890
:1000C000A3010008A3010008A3010008A301000880
:1000D000A3010008A3010008A3010008A301000870
:1000E000A3010008A3010008A301000800F002F822
:1000F00000F03AF80AA090E8000C82448344AAF188
:100100000107DA4501D100F02FF8AFF2090EBAE885
:100110000F0013F0010F18BFFB1A43F0010318473B
:10012000D8270000F8270000103A24BF78C878C10B
:10013000FAD8520724BF30C830C144BF04680C60ED
:10014000704700000023002400250026103A28BF35
:1001500078C1FBD8520728BF30C148BF0B60704739
:100160001FB51FBD10B510BD00F08AF81146FFF78E
:10017000F7FF02F005F900F0A8F803B4FFF7F2FF6B
:1001800003BC00F0AFF80000094880470948004769
:10019000FEE7FEE7FEE7FEE7FEE7FEE7FEE7FEE737
:1001A000FEE7FEE704480549054A064B7047000094
:1001B0005D230008ED000008D0010020D0070020DA
:1001C000D0030020D003002010B5203AC0F00B80EF
:1001D000B1E81850203AA0E81850B1E81850A0E84B
:1001E0001850BFF4F5AF5FEA027C24BFB1E81850A5
:1001F000A0E8185044BF18C918C0BDE810405FEA15
:10020000827C24BF51F8043B40F8043B08BF704790
:10021000D20728BF31F8023B48BF11F8012B28BF95
:1002200020F8023B48BF00F8012B70474FF0000256
:1002300000B5134694469646203922BFA0E80C50DC
:10024000A0E80C50B1F12001BFF4F7AF090728BFB7
:10025000A0E80C5048BF0CC05DF804EB890028BF33
:1002600040F8042B08BF704748BF20F8022B11F05C
:10027000804F18BF00F8012B7047704770477047D8
:10028000754600F02BF8AE4605006946534620F04F
:100290000700854618B020B5FFF784FFBDE8204071
:1002A0004FF000064FF000074FF000084FF0000B32
:1002B00021F00701AC46ACE8C009ACE8C009ACE8E5
:1002C000C009ACE8C0098D46704710B50446AFF3CD
:1002D00000802046BDE81040FFF74FBF0048704740
:1002E0006C01002001491820ABBEFEE72600020089
:1002F0007047FEE77047022000F020B872B6FEE7B4
:1003000070B5044600F01CF90546601C02D0044894
:100310000078044400F014F9401BA042FAD370BDE9
:1003200004000020022805D103498022A1F12C00FD
:1003300001F00FBD7047000040000020044910B5D7
:100340000A68024202D00860FFF7ECFF10BD00000F
:10035000140401402DE9F84FDFF8B8910024A9F109
:10036000040B23460F2709F1040AABF1040EC9E080
:100370000125A5402A40AA427DD1674ED1F804C08C
:10038000ACEB0608B44532D014DCBCF1030F3AD014
:1003900009DCBCF1000F2AD0BCF1010F1CD0BCF16C
:1003A000020F31D11DE0BCF1110F17D0BCF1120FBB
:1003B0002AD119E0B8F5881F19D006DCB8F5803FBE
:1003C00015D0B8F5801F1FD111E0B8F5001F0ED071
:1003D000B8F5041F18D10AE0CB6815E0CB681B1DE7
:1003E00012E0CB6808330FE0CB680C330CE08B686D
:1003F0002BB1012B4FF0080303D0456104E0042327
:1004000002E0056100E00023FF2A01D8064601E072
:1004100000F104064FEA840501D9A5F12005D6F8BC
:10042000008007FA05FC28EA0C0803FA05F548EAFB
:100430000508C6F800804D68ED0062D5374DAE69FD
:1004400046F00106AE61AD6924F0030605F0010532
:100450000095334D06EB050CDCF80850A607360F67
:1004600007FA06F825EA0805DFF8B880404503D109
:100470004FF0000817E044E0DFF8AC80404502D1BF
:100480004FF001080FE0DFF8A480404502D14FF0A3
:10049000020808E0DFF89880404502D14FF00308D9
:1004A00001E04FF0040808FA06F848EA0508CCF81D
:1004B00008804D68D9F80060ED024D4601D516431D
:1004C00000E096432E604D68DAF80060AD025546B4
:1004D00001D5164300E096432E604D68DBF80060BE
:1004E000AD035D4601D5164300E096432E604D688E
:1004F000DEF80060ED03754601D5164300E0964333
:100500002E60641C0D682A46E5407FF431AFBDE8DB
:10051000F88F000008040140000011100010024094
:100520000000014000080140000C014000100140A3
:10053000001401400AB1016170470904FBE70000A3
:1005400001488068704700000400002070B5040076
:1005500025D094F83D00002520B984F83C50204671
:1005600000F076FA242084F83D002068016821F02C
:10057000010101602068016841F4004101602068C8
:10058000016821F40041016000F0BEFB4D4A616842
:10059000914201D84C4900E04C49884201D20120E7
:1005A00070BD4B492368B0FBF1F15E6826F03F0651
:1005B0000E435E606368934206D94FF496735943C5
:1005C0004FF47A73B1FBF3F12368491C1E6A26F0DD
:1005D0003F06314319626168914210D84900401EBC
:1005E000B0FBF1F2521CC2F30B02042A01D2042028
:1005F00022E0B0FBF1F0401CC0F30B001CE0A2684D
:10060000F2B301EBC10303EB0116431EB3FBF6F398
:100610005B1C43F480431B0549D092B301EBC1023C
:1006200002EB0111401EB0FBF1F0401CC0F30B00C7
:1006300040F4804040F400402168CA694CF6FF73E2
:100640009A431043C861D4E9071001432068026847
:1006500022F0C00211430160D4E903010143206884
:10066000826848F2FF339A4311438160D4E905015F
:1006700008432168CA6822F0FF021043C86001E005
:100680000EE016E02068016841F001010160256478
:10069000202084F83D00256384F83E50002070BD82
:1006A00001EB4106431EB3FBF6F35B1CB3E70120ED
:1006B000C2E701EB4101401EB0FBF1F0401CC0F36A
:1006C0000B00B7E7A086010080841E0000093D00F2
:1006D00040420F002DE9F84F0025DDF8289098469C
:1006E00017468A4604460095FFF72AFF064694F807
:1006F0003D0020287AD11923012286492046009600
:1007000001F0D2F80028F5D194F83C0001286DD012
:10071000012084F83C0020680168C90703D1016802
:1007200041F0010101602068016821F4006101606D
:10073000222084F83D00102084F83E002564676282
:10074000A4F82A80608D20857348E06233464A46CB
:100750005146204600F0B8FF00287CD1208DDFF8FC
:10076000BC81202768B1012814D0022820680168C4
:100770001ED041F480610160206841698069009069
:10078000BBE02068416981690091016841F4007112
:100790000160B2E02068016821F48061016072B6F6
:1007A0002068416981690091016841F400710AE0A3
:1007B00041F40061016072B620684169816900916D
:1007C000016821F48061016062B696E0032865D873
:1007D00001280CD002284B464FF00002414620462B
:1007E00000960BD001F060F8A8BB0CE090E0324618
:1007F0004946204601F0FEF868BB71E001F054F86C
:1008000048BB72B633E02068016821F48061016062
:1008100072B620680069616A0870606A401C606294
:10082000208D401E2085608D401E60853C4846F22C
:10083000A8110068B0FBF1F0C0EBC00000EB800035
:100840000090401E009007D020684069C0434007D8
:100850000DD50098F5E727E044F8305F6773A5737E
:10086000206940F02000206162B625731CE02068FA
:10087000016841F40071016020680069616A0870D4
:10088000606A401C6062218D491E2185618D491E70
:10089000618562B621680969017025E032464946E2
:1008A000204601F0A7F810B10120BDE8F88F2068BC
:1008B0000069616A0870606A401C6062208D401E99
:1008C00081B22185608D401E608520684269D243D7
:1008D000520712D4032903D1016821F48061016019
:1008E00020680069616A0870606A401C6062208D3F
:1008F000401E2085608D401E6085208D00287FF47D
:1009000065AF84F83D7084F83E5084F83C50CCE7E5
:100910000220CAE7020010000000FFFF04000100EF
:10092000100000202DE9F84F1F4690468A460446E5
:10093000DDF82890FFF704FE054694F83D002028D6
:100940007FD11923012240492046009500F0ACFFD9
:10095000002876D194F83C00012872D0012084F858
:100960003C0020680168C90703D1016841F001011A
:1009700001602068016821F400610160212084F891
:100980003D00102084F83E0000262664C4F8248030
:100990006785608D20852D48E0622B464A4651468A
:1009A000204600F007FF90B92068416980690090F7
:1009B00036E02A464946204601F054F850B1206CF2
:1009C000042804D12068016841F40071016001200D
:1009D000BDE8F88F606A216800780861606A401C91
:1009E0006062618D491E6185218D491E89B2218514
:1009F00022685369DB435B070BD451B10078106167
:100A0000606A401C6062608D401E6085208D401EC3
:100A100020852A464946204600F01AFF0028CED1FC
:100A2000208D0028C5D154F83D0B016841F40071B8
:100A30000160202004F81E09E67766770020C7E7EA
:100A4000FFE70220C4E70000020010000000FFFFE3
:100A500010B586B0002100910191029103910068C8
:100A60000F4988421AD10F4CA06940F00800A061DC
:100A7000A069694600F008000490C0200090122090
:100A80000190032003900848FFF764FCE06940F4FC
:100A90000010E061E06900F40010049006B010BDA1
:100AA0000054004000100240000C014002488168E0
:100AB000027811448160704704000020074810B597
:100AC000016841F010010160032000F075F80F206B
:100AD00000F006F800F024F8002010BD00200240CD
:100AE00070B50D4D04464FF47A712878B1FBF0F0E3
:100AF0000A490968B1FBF0F000F0B9FD48B9102CC3
:100B000007D200222146501E00F036F800206C600B
:100B100070BD012070BD0000040000201000002006
:100B20000C4808B5816941F001018161816901F0DA
:100B300001010091C16941F08051C161C06900F0BB
:100B4000805000900448416821F0E06141F000715C
:100B5000416008BD0010024000000140002809DB90
:100B600000F01F02012191404009800000F1E020C7
:100B7000C0F8001170470000F0B40E4B1B680C4623
:100B8000C3F30223C3F10705042D00D90425191D61
:100B9000072901D2002300E0DB1E012606FA05F139
:100BA000491E214099409E40761E16403143F0BCBC
:100BB00001F0D6BB0CED00E0064900F00702086822
:100BC0004FF6FF03184040EA0220034A1043086032
:100BD000704700000CED00E00000FA052DE9F04739
:100BE0000F46050061D0434E306800F00700B84260
:100BF00009D2306820F0070038433060306800F0D8
:100C00000700B84251D128683B4C810712D54007F4
:100C100003D5606840F4E06060602878000703D581
:100C2000606840F4605060606068A96820F0F0007F
:100C3000084360602878C00728D06868012810D071
:100C40002168022810D0890700292EDA616821F076
:100C5000030101436160FFF773FC804641F288396C
:100C60000DE021688903EFE78901EDE7FFF768FCF4
:100C7000A0EB0801494502D90320BDE8F087606870
:100C8000696800F00C00B0EB810FEFD1306800F024
:100C90000700B8420BD9306820F0070038433060B5
:100CA000306800F00700B84201D00120E5E728785D
:100CB000400705D56068E96820F4E060084360609B
:100CC0002878000706D56068296920F4605040EA5A
:100CD000C100606000F028F86168084AC1F30311A0
:100CE000515CC8400649086006480068FFF7F8FEF6
:100CF0000020C2E700200240001002408A280008BD
:100D000010000020080000200448054900684968D8
:100D1000044AC1F30221515CC84070471000002012
:100D2000001002409A2800080E4A51680E4801F04F
:100D30000C03042B11D0082B0FD10C48C1F38343B3
:100D4000C903C05C0AD55168084AC1F34041921EEC
:100D5000515C054A5043B0FBF1F0704704494843E9
:100D6000704700000010024000127A007A28000844
:100D700000093D002DE9F84F040070D02078C04DE7
:100D8000C00749D06868C0F38100012807D06868AF
:100D9000C0F38100022809D16868C00306D528681D
:100DA000800339D560680028E7D035E06068B0F589
:100DB000803F0BD010B1B0F5A02F11D0286820F4DF
:100DC00080302860286820F4802002E0286840F401
:100DD00080302860606890B1FFF7B2FB06460AE0F9
:100DE000286840F480202860F0E700BFFFF7A8FBE8
:100DF000801B642873D828688003F7D50CE0FFF7C0
:100E00009FFB064605E000BFFFF79AFB801B6428A6
:100E1000F0D828688003F7D420789A4E80074FF0E6
:100E200001094FF0000839D5686810F00C0F07D0A1
:100E30006868C0F38100022809D16868C00306D43D
:100E40002868800714D52069012808D110E020699E
:100E5000B0B1C6F80090FFF773FB074605E00AE162
:100E6000FFF76EFBC01B0228C4D828688007F7D59F
:100E70002868616920F0F80040EAC10028600DE0B0
:100E8000C6F80080FFF75CFB074604E0FFF758FB5D
:100E9000C01B022823D828688007F7D420780007D1
:100EA0002CD57948A169D9B1C0F80090FFF748FB6B
:100EB000074604E0FFF744FBC01B02280FD8686A0E
:100EC0008007F7D571484FF4FA510068B0FBF1F094
:100ED000009000BF0098411E0091FAD20EE080E021
:100EE000C0F80080FFF72CFB074604E0FFF728FB63
:100EF000C01B022875D8686A8007F7D4207840079D
:100F000060D5E8690027C00008D4E86940F0805047
:100F1000E861E869012700F0805000905C480168B2
:100F2000C90513D40168834641F480710160FFF75D
:100F300007FB824606E000BFFFF702FBA0EB0A00BA
:100F400064284ED8DBF80000C005F5D5E06801281C
:100F50000AD008B1052813D0286A20F001002862C1
:100F6000286A20F0040002E0286A40F001002862AC
:100F7000E06841F2883B98B1FFF7E2FA82460BE065
:100F8000286A40F004002862EEE700BFFFF7D8FAB5
:100F9000A0EB0A0159455AD8286A8007F6D50CE01B
:100FA000FFF7CEFA824605E0FFF7CAFAA0EB0A0186
:100FB00059454CD8286A8007F6D41FB1E86920F05B
:100FC0008050E861E06988B36968C1F38101022952
:100FD00044D00228C6F8608004D0FFF7B1FA044676
:100FE00038E034E0FFF7ACFA074604E0FFF7A8FA70
:100FF000C01B02282BD828688001F7D4206AB0F5DE
:10100000803F05D16868A16820F40030084368601B
:10101000D4E908010843696821F474110843686041
:10102000C6F86090FFF78CFA044606E025E000BFA2
:10103000FFF786FA001B022809D828688001F7D537
:101040001BE000BFFFF77CFA001B022802D9032037
:10105000BDE8F88F28688001F4D40EE00128F7D0AD
:101060006868226A00F48031914204D1616A00F418
:101070007010884201D00120EAE70020E8E7000074
:101080000010024000004242800442421000002052
:101090000070004090F85100704770B5040009D00E
:1010A000606A002540B125616561A56294F8510030
:1010B00040B10CE0012070BD6068B0F5827FF4D0D3
:1010C000E561F2E784F85050204600F03FF8022036
:1010D00084F851002068016821F040010160A08877
:1010E000218900F4827001F404410843A18901F4CC
:1010F00000610843217C01F002010843217D01F0D9
:1011000001010843218B01F400710843217F01F0A4
:101110003801084394F8201001F080010843218D24
:1011200001F40051084321680860A069042101EA24
:101130001040216848602068C16921F40061C161E4
:101140006565012084F85100002070BD30B585B080
:101150000024009401940294039400681449884286
:1011600023D11448816941F480518161816901F47E
:1011700080510491816941F00401816180690E4DC3
:1011800000F004000490A0200090022001900320B1
:10119000039069462846FFF7DDF84020CDE90004BA
:1011A000694628460294FFF7D5F805B030BD000027
:1011B0000030014000100240000801402DE9F84FC6
:1011C000044690F85100984616460F46002501281F
:1011D00001D0022598E060684FF0040BB0F5827FE3
:1011E00001D1A068F8B194F85000012826D04FF042
:1011F000010984F85090FFF7A3F98246002F7FD0B1
:10120000002E7DD084F851B000206065A763A687CA
:10121000E6872063A086E08620646064A068B0F55D
:10122000004F0DD016E084F851B013460A46204610
:10123000CDF8008000F024F9BDE8F88F0220FBE72C
:101240002068016821F0400101602068016821F4F4
:101250008041016020680168490603D4016841F0BB
:1012600040010160E068D8B13BE020688168C907AF
:1012700009D0007BA16B0870A06B401CA063E08FBD
:10128000401EE0870CE0FFF75BF9A0EB0A01414547
:1012900003D3B8F1FF3F03D006E0B8F1000F03D04D
:1012A000E08F0028E1D11FE003252BE02068816852
:1012B000C90709D0C068A16B0880A06B801CA0631F
:1012C000E08F401EE0870CE0FFF73AF9A0EB0A013F
:1012D000414503D3B8F1FF3F03D0E5E7B8F1000F74
:1012E000E2D0E08F0028E1D152464146204600F08E
:1012F00068FF08B120206065606D00E000E008B183
:10130000012501E084F85190002084F8500028461F
:1013100092E72DE9F84F044690F8500000269846D1
:1013200015468A4601280CD0012784F85070FFF733
:1013300007F9814694F85100B346012804D00226EB
:101340009AE00220BDE8F88FBAF1000F6FD0002DAF
:101350006DD0032084F85100C4F854B0C4F830A014
:10136000A586E586C4F838B0A4F83CB0A4F83EB031
:10137000C4F844B0C4F840B0A068B0F5004F09D13B
:101380002068016821F0400101602068016841F493
:101390008041016020680168490603D4016841F07A
:1013A00040010160E068B0F5006F606803D058B399
:1013B000012D29D049E008B1012D1FD1206B2168F2
:1013C0000088C86006E020688168890709D5216B1C
:1013D0000988C160206B801C2063E08E401EE0867F
:1013E0000CE0FFF7ADF8A0EB0901414503D3B8F1DC
:1013F000FF3F03D006E0B8F1000F03D0E08E0028D5
:10140000E1D125E0032635E0206B216800780873E0
:1014100006E02068816889070AD5216B0978017385
:10142000206B401C2063E08E401EE0860DE01FE034
:10143000FFF786F8A0EB0901414503D3B8F1FF3F60
:1014400003D0DFE7B8F1000FDCD0E08E0028E0D158
:101450004A464146204600F0E2FE08B12020606581
:10146000A06818B92068C16880680090606D08B1F4
:10147000012601E084F8517084F850B0304661E7ED
:101480002DE9FF4F81B0044690F8500000260E9FD2
:101490001D4693464FF0010901280FD04FF0010A75
:1014A00084F850A0FFF74CF8804694F8510061682A
:1014B00001280DD0B1F5827F08D103E0022005B0EC
:1014C000BDE8F08FA16809B9042801D00226C9E05F
:1014D0000298002865D0BBF1000FFBD0002DF9D099
:1014E00094F85100042802D0052084F8510000200F
:1014F0006065C4F838B0E587A58702992163E58661
:10150000A5862064606420680168490603D40168E8
:1015100041F040010160E068B0F5006F606803D001
:10152000F0B3012D47D081E008B1012D3CD1206BF3
:1015300021680088C860206B801C2063E08E401EFC
:10154000E08631E02068816889070FD5E18E69B1B6
:10155000B9F1010F0AD1216B0988C160206B801C91
:101560002063E08E401EE0864FF00009206881680D
:10157000C9070CD0E18F51B1C068A16B0880A06B86
:10158000801CA063E08F401EE0874FF00109FEF74A
:10159000D7FFA0EB0800B84206D3781C04D001E0C6
:1015A00009E05BE003265BE0E08E0028CAD1E08F13
:1015B0000028C7D140E0206B216800780873206BB9
:1015C000401C2063E08E401EE0862FE0206881688A
:1015D00089070FD5E18E69B1B9F1010F0AD1216BED
:1015E00009780173206B401C2063E08E401EE0866A
:1015F0004FF0000920688168C9070CD0E18F51B114
:10160000C068A16B0870A06B401CA063E08F401EF7
:10161000E0874FF00109FEF793FFA0EB0800B84206
:1016200002D3781C02D0BAE7002FB8D0E08E002891
:10163000CCD1E08F0028C9D142463946204600F07F
:10164000EEFD18B10126202060650BE0A06818B9F6
:101650002068C16880680090606D08B1012601E0D3
:1016600084F851A0002084F85000304627E710B5D8
:10167000401EB0F1807F01D3012010BD4FF0E02467
:1016800060610F21601700F06BFE0020A061072051
:101690002061002010BDFEE701684A69D24352056F
:1016A0000FD46FF480624A61002140F8301F20227D
:1016B00042738173026942F00402026101730120E6
:1016C00070470020704700002DE9F84F0446C06ABB
:1016D0001E4693460D4621680A6842F480620A60FD
:1016E000082807D0012805D010F5803F02D0206BD4
:1016F000112804D12068016841F4807101604FF025
:1017000001195B46002249462046009600F0CCF8BD
:101710004FF4007840B120680068C00501D5C4F8D6
:1017200040800320BDE8F88F2069DFF884A0B0F581
:10173000804F0FD00620216800EAD51747F0F0004F
:10174000086133465A460AF10601204600F0F4F8D3
:1017500058BB03E0E8B240F001001CE02168E8B2A9
:10176000086133465A465146204600F0E5F8E0B994
:101770002068416981690091016841F480710160CC
:101780005B46002249462046009600F08DF800286E
:10179000C1D147F0F1002168086133465A465146ED
:1017A000204600F0C9F80028BCD00120BAE70000AC
:1017B00002000100F8B50446C06A1E460D461746F1
:1017C000082807D0012805D010F5803F02D0206BF3
:1017D000122804D12068016841F480710160134629
:1017E00000224FF001112046009600F05DF840B154
:1017F00020680068C00502D54FF400702064032003
:10180000F8BD2069B0F5804F0ED00620216800EAAF
:10181000D51040F0F000086133463A460B492046A7
:1018200000F08AF878B902E005F0FE0000E0E8B2C6
:1018300021680861054933463A46891F204600F071
:101840007BF80028DCD00120F8BD00000800010072
:1018500070B516460D4604461EE02046FFF71CFFF5
:1018600008B1012070BD681C16D0FEF769FE801B10
:10187000A84200D885B920684069C04340070BD50D
:10188000002044F8300F20216173A073216941F0DA
:10189000200121612073E4E720684069C0434007CC
:1018A000DBD4002070BD00002DE9F04798461746B4
:1018B0000D460446C1F30746DDF820902AE000BF3C
:1018C000B8F1FF3F26D0FEF73BFEA0EB09014145F2
:1018D00002D8B8F1000F1DD12068012E16D0806902
:1018E00025EA00000004000C12D00020B84211D1FB
:1018F000002044F8300F20216173A073216941F06A
:101900002001216120730120BDE8F0874069E7E7ED
:101910000120EBE72068012E0AD0806925EA00004B
:101920000004000C06D00020B842C9D00020EBE72C
:101930004069F3E70120F7E72DE9F047984616469E
:101940000D4604464FF000094FF0200AC1F3074747
:1019500023E020684069C043400515D42068016831
:1019600041F40071016021686FF480604861C4F83F
:10197000309084F83DA084F83E90216C41F0040141
:10198000216484F83C9021E0701C06D0FEF7D8FD5D
:10199000A0EB0800B04203D816B1012F1FD021E000
:1019A0002068012F15D0806925EA00000004000C92
:1019B00018D000BF44F8309F84F80DA084F80E9032
:1019C000216941F02001216184F80C900120BDE8DB
:1019D000F087406925EA00000004000CEAD1206885
:1019E000406901E02068806925EA00000004000CDD
:1019F000AFD1ECE72DE9F041002590460E460446B4
:101A0000202728E04069C043C0060CD454F8301B9E
:101A10006FF01000486144F810596777A577206A85
:101A20002062257714E0FEF78BFDA0EB0800B042A2
:101A300000D886B920684069C04340060BD544F8F9
:101A4000305F6773A573206940F020002061257323
:101A50000120BDE8F08120684169C9434906D1D41D
:101A60000020F6E770B516460D4604461EE02046F7
:101A7000FFF712FE08B1012070BD681C16D0FEF7FA
:101A80005FFD801BA84200D885B920684069C0432B
:101A900000060BD5002044F8300F20216173A0739D
:101AA000216941F0200121612073E4E72068406949
:101AB000C0430006DBD4002070BD0000FEB5064622
:101AC0000CA04FF47A7400680D46CDE90040012364
:101AD00001AA3046FEF726FF022302AA2946304615
:101AE0000094FEF7F7FD08B1FF20FEBDBDF8080029
:101AF00040BAFEBD040000001CB505238DF804307B
:101B0000130A8DF805308DF806204FF47A72009292
:101B1000032301AAFEF706FF1CBD1CB500238DF8A8
:101B20000430130A8DF805308DF806204FF47A72D0
:101B30000092032301AAFEF7F5FE1CBDF8B504468A
:101B400041F080008DF8000017461E46A188002253
:101B50002068FEF7EFFC4FF4FA652B460122694638
:101B6000A069FFF7D6FBA069FFF794FA0128FAD124
:101B70002B4632463946A069FFF7CBFBA069FFF739
:101B800089FA0128FAD1A18801222068FEF7D2FC47
:101B9000F8BD70B50C460546012100F09FF80246DD
:101BA00044B1012C0BD0032C0FD0052C13D0062CE4
:101BB00017D01BE0002002F0F802E86116E00120D7
:101BC00002F0F802521CE86110E0032002F0F80273
:101BD000D21CE8610AE0052002F0F802521DE8611B
:101BE00004E0062002F0F802921DE8612846BDE8F4
:101BF0007040012100F0E5B970B504460021FFF7FF
:101C0000C8FF0A20FEF77CFB0121204600F066F8A1
:101C100005460A20FEF774FB45F0800201212046AC
:101C200000F0CFF96420FEF76BFB2046216A00F03C
:101C3000F5F894F82A10204600F044F994F82B1097
:101C4000204600F020F923220C21204600F0B9F9AB
:101C5000204600F061F994F82410204600F03CF989
:101C6000FF221F21204600F0ACF994F8250094F8DB
:101C70002610000100EB4100C2B21D21204600F0F9
:101C8000A0F9204600F0A4F8208D2021020A204669
:101C900000F097F994F828202121204600F091F9CE
:101CA0004021204600F01AF840F03F024021204633
:101CB00000F087F901212046FFF76BFF0120E0616A
:101CC0000A20FEF71DFB4221204600F007F81228EB
:101CD00002D04FF4CA7070BDC82070BD0EB501F0BF
:101CE0007F018DF8081001210A46009101AB02A97D
:101CF00000F003F89DF804000EBD2DE9F0470E46F4
:101D00001546044681889846DDF820900068002238
:101D1000FEF710FC4FF4FA673B462A463146A069AD
:101D2000FFF7F7FAA069FFF7B5F90128FAD13B46AA
:101D30004A464146A069FFF741FAA069FFF7AAF9B0
:101D40000128FAD1A1882068BDE8F0470122FEF7FA
:101D5000F1BB2DE9F04100250E4607461446284602
:101D6000294601E03154401CA042FBDB01213846EA
:101D7000FFF70FFF12213846FFF7B0FF40061FD5CF
:101D8000FF221221384600F01CF913213846FFF7D4
:101D9000A5FF054610213846FFF7A0FF02460D219A
:101DA000384600F00EF9AC4200D22546002405E08A
:101DB00000213846FFF792FF3055641CAC42F7DB38
:101DC00005213846FFF7E5FE2846BDE8F081000012
:101DD00010B594B0044650220F496846FEF7F4F956
:101DE00094F824100120884000F0DBFC94F82520B2
:101DF0006B4603EBC203D3E9002300F04BFB00F07A
:101E0000A1FC102801DD012100E00021204600F0A6
:101E100025F814B010BD0000A828000870B50546CC
:101E2000C8044411C4F307420621284600F0C9F84B
:101E30000520FEF765FAC4F307220721284600F0C3
:101E4000C0F80520FEF75CFAE2B20821284600F04F
:101E5000B8F8BDE870400520FEF752BA70B50C46E0
:101E600005462621FFF73AFF14B140F0080201E0D1
:101E700000F0F7022621284600F0A3F8BDE87040E4
:101E80000A20FEF73DBA10B52D2901D22D2105E01B
:101E9000F02901D9F02106E0782904D805222D394E
:101EA00091FBF2F103E00A221E31B1FBF2F1C9B25B
:101EB0002031CAB20B2100F084F8BDE810400A209E
:101EC000FEF71EBA10B50A46092100F07AF8BDE8FF
:101ED00010400A20FEF714BA70B50C4606460C29CD
:101EE00001DD0C2402E0072C00DA07241E21FFF795
:101EF000F5FE05460A20FEF703FA64F31F15EAB261
:101F00001E21304600F05DF80A20FEF7F9F9304650
:101F1000BDE87040FFF75CBF10B504461E21FFF717
:101F2000DDFE40F007021E21204600F04AF8BDE821
:101F300010400A20FEF7E4B90521FFF72ABE2DE97B
:101F4000F0410F461C46164680460121C569FFF741
:101F500020FE0E214046FFF7C1FE02460D214046FD
:101F600000F02FF832462221404600F02AF833468E
:101F70003A4600214046FFF7E1FD03214046FFF7C6
:101F800008FE12214046FFF7A9FE00070BD5FF22ED
:101F90001221404600F015F829464046FFF7F9FDAA
:101FA0000120BDE8F081641E2404240C03D001202C
:101FB000FEF7A6F9E5E729464046FFF7EAFD0020CF
:101FC000EFE70EB541F080018DF8081001218DF882
:101FD00004200A46009101AB02A900F001F80EBDF1
:101FE0002DE9F0470E461546044681889846DDF8EF
:101FF000209000680022FEF79DFA4FF4FA673B46F6
:102000002A463146A069FFF784F9A069FFF742F834
:102010000128FAD13B464A464146A069FFF779F9C3
:10202000A069FFF737F80128FAD1A1882068BDE838
:10203000F0470122FEF77EBA2DE9F04385B0002477
:1020400037480094019402940394816941F010018F
:102050008161816901F010010491816941F02001E1
:102060008161816901F020010491816941F00401DD
:102070008161816901F004010491816941F00801E5
:1020800081618069274F00F008004FF400550490EB
:10209000002229463846FEF74DFADFF88C800122EF
:1020A00010214046FEF746FADFF8809001221146E3
:1020B0004846FEF73FFA0022E9104046FEF73AFA9A
:1020C0000095022601250396CDE90154694638465C
:1020D000FEF740F916480096CDE9010469464046EE
:1020E000FEF738F94FF48260CDE90005CDE90246EC
:1020F00069464046FEF72EF903960095CDE9015456
:1021000069464846FEF726F9002211460720FEF7E9
:1021100033FD0720FEF722FD05B0BDE8F083000087
:10212000001002400010014000080140000C014076
:10213000000011100D4810B50B4901600C494160B9
:1021400000214FF480428160C0E903124161816146
:10215000C1610162FEF7FAF9002803D0BDE8104022
:10216000FEF7CCB810BD000000540040C0000020B5
:10217000A0860100104810B50E4901604FF482712D
:10218000416000218160C1604FF400720161C0E9CB
:1021900005121022C0E90721416281620A21C16251
:1021A000FEF77BFF002803D0BDE81040FEF7A6B87D
:1021B00010BD00000030014014010020FEE7FEE7E2
:1021C0007047F8B5044640684FF48273984217D1BF
:1021D000A0684FF48065B0F5004F01D0A8420FD140
:1021E0002068066826F0400606606068984207D1BD
:1021F000A068A84204D100920B460022012103E00E
:1022000000920B4600228021204600F019F8002899
:1022100004D0606D40F0200060650320F8BD38B543
:102220000B46009204460022802100F009F80028A5
:1022300004D0606D40F020006065032038BD0000D0
:102240002DE9F8431E46914688460446089DFEF750
:1022500077F9401B351AFEF773F9074625480068E1
:10226000C0F3CB30684338E0701C37D0FEF768F914
:10227000C01BA84203D215B1009860B32CE02068BF
:10228000416821F0E00141606068B0F5827F0BD1C8
:10229000A068B0F5004F02D0B0F5806F04D120687F
:1022A000016821F040010160A06AB0F5005F09D12A
:1022B0002068016821F4005101602068016841F440
:1022C00000510160012084F85100002084F8500082
:1022D0000320BDE8F8830025401E00902068816837
:1022E00038EA010004D000214945BDD10020F0E7C3
:1022F0000121F9E7100000207047FEF7D7BB30B589
:102300008FB028216846FDF791FF14210AA8FDF738
:102310008DFF01210804CDE900100024029402255C
:102320000491CDE907504FF4E01009906846FEF79C
:1023300021FD08B172B6FEE70F20CDE90A054FF482
:102340008060CDE90C4002210AA80E94FEF746FCFD
:10235000002801D072B6FEE70FB030BD7047FEE72F
:102360000907090E002804DB00F1E02080F80014C2
:10237000704700F00F0000F1E02080F8141D704756
:10238000ACB0FEF79BFBFFF7BAFFFFF755FEFFF778
:10239000F1FEFFF7CFFE20A800F060F82C2220A964
:1023A0002848FDF711FF27482749102202C00125C0
:1023B00020F8042B254A022604C0058041600681CE
:1023C0002349C16040F2B11141610A21017608211F
:1023D000417605218176F92181776421C1770C212D
:1023E00081831848FFF708FC1A4CC82800D12580C3
:1023F0001448FFF7A1FD8DF800508DF8016040F6FC
:10240000076280211448FFF788FB4FF400628021A7
:102410001148FFF771FB4FF4FA75AE0080210E48AA
:10242000FFF74CFB6080010A8DF800108DF8010069
:102430002B46032269460348FFF781FD3046FDF72E
:102440005FFFEBE71400002000080140000C014092
:102450001401002000000020C000002000B58BB057
:1024600040F2B111089107218DF824108DF8251044
:1024700001218DF82610FF218DF82A1064218DF896
:102480002B100821ADF828102C226946FDF79CFE80
:102490000BB000BD2DE9C04130B4DFF8A0C23CEA6A
:1024A000111418BF3CEA131400F0EC8081EA030514
:1024B0001CEA111444EAD57418BF1CEA131500F085
:1024C000C780A4EB05044FF0004545EAC12145EA69
:1024D000C32341EA505143EA525304F17F749942B5
:1024E00004F500344FEAC0204FEAC22208BF9042F0
:1024F00000F09C804FEA13650FF24016765D4FEABC
:10250000134506FB05F7C7F1807706FB07F74FEA8F
:10251000D737A7FB03687642C8F58038A7FB06CEFD
:1025200038BFA8F1010807FB08E64FF0000EA6FB34
:10253000028CE6FB03CEDCF1000CCEF1004E38BF7E
:10254000AEF1010EA6FB0C584FF000074FF000054E
:10255000E6FB0E87A1FB08C6A0FB07CE16EB0E0616
:1025600045F10005E1FB076515F1E04E7EBFA4F5DE
:1025700080345FEA46066D4116F1800745F100059B
:102580004FEA17274FEA066647EA0567A6F1DE46D7
:10259000B6F1805F4FEA15251FD9384624F0010CAB
:1025A00005EBC471BCF1FE6F01EB0C1102D8F0BC5D
:1025B000BDE8008124425CBF01F5801E9EEAC47F15
:1025C00002D4F0BCBDE80081244238D4F0BCA1F1B3
:1025D000C041BDE8004100F049B94FEAD22242EAC9
:1025E00043524FEAD323A7FB02864FEAD02040EAAA
:1025F000415007FB03661EEA0E0F4FEAD12105FB8F
:10260000026658BFA6EB0056B6EB00564FEA520ED4
:102610004EEAC37E18EB0E0E56EB530EBDD518EBEB
:1026200002085E417F1C55F10005B6E74FF48015A6
:102630004FF000074FF000064FF00008ADE7F0BC88
:102640004FF0000001F1C04101F00041BDE8008100
:1026500011EA0C1F0CEA131500D00CE013EA0C1F52
:1026600000F025804FF00000F0BC81EA030101F08A
:102670000041BDE80081F0BCBDE8004181EA0301F2
:1026800000F0F4B8F0BCBDE8004170B500F0A0F86F
:10269000097EFC3E00F007B881EA03014FF000001C
:1026A00001F00041704781EA030100F0DFB8F0BC9F
:1026B000BDE800414FF0000021497047FFFDFBF9E4
:1026C000F7F5F4F2F0EEEDEBE9E8E6E4E3E1E0DE65
:1026D000DDDBDAD8D7D5D4D3D1D0CFCDCCCBCAC8D7
:1026E000C7C6C5C4C2C1C0BFBEBDBCBBBAB9B8B7FE
:1026F000B6B5B4B3B2B1B0AFAEADACABAAA9A8A8F1
:10270000A7A6A5A4A3A3A2A1A09F9F9E9D9C9C9BBE
:102710009A99999897979695959493939291919069
:102720008F8F8E8E8D8C8C8B8B8A898988888787FA
:102730008685858484838382828181800000FF076F
:102740000000F87F4FEA41034FEA5353A3F580633B
:10275000D3F11E03C8BFD3F1210C0CDD4FF00042B2
:1027600042EAC12242EA505232FA03FC8CEAE17C8E
:10277000ACEBE1707047102BC4BF0020704703F52D
:10278000787CBCF1FF3F04D06FF0004282EA210068
:10279000704770B500F01CF8499224800020704703
:1027A000F2E710F0004248BF4042B0FA80F310FA5E
:1027B00003F10AD0C3F11D0303F580634FEA4150D2
:1027C00002EB035202EBD12170474FF0000070473B
:1027D0000EF1020E2EF0030E5EF8046B364205D4A5
:1027E000012A43EB030515F5001F12D8012841EB20
:1027F000010C1CF5001F0CD80ED14FEAD17C15F549
:10280000001F0CEB4C0C0CF1020C08BF4CEBD37C02
:1028100004E04FF0080C01E04FEAD37C0CEB4C05D0
:1028200026FA05F606F00706B6F1040C06D20EEB02
:10283000860CBDE870404CF0010C6047DFE80CF0FE
:10284000090B02024FF000414FF00000A1F50021FA
:1028500070BD19461046012851EB010418BFD4F58C
:10286000001484BF002001F0004170BD0808A0F5ED
:1028700000114FEA31017047010202030405060707
:1028800008090A0B0C0D0E0F1010000000000000CC
:10289000000001020304060708090000000001020D
:1028A00003040000000000003333333333331F4090
:1028B000CDCCCCCCCCCC24403333333333332F404A
:1028C000CDCCCCCCCCCC34400000000000403F400C
:1028D0009A99999999D944400000000000404F40CE
:1028E0000000000000405F400000000000406F401A
:1028F0000000000000407F40182900080000002070
:1029000014000000280100082C29000814000020F1
:10291000BC070000440100080000000001000000A6
:0C29200010000000000000000024F40083
:04000005080000ED02
:00000001FF
